{
    "_format": "hh-sol-artifact-1",
    "contractName": "NFTMarketplace",
    "sourceName": "contracts/NFTMarketplace.sol",
    "address": "0x313F701B654b349d4b348f29EF2F8eDf981FEf53",
    "abi": [
        {
            "inputs": [
                {
                    "internalType": "address",
                    "name": "_oracleAddress",
                    "type": "address"
                }
            ],
            "stateMutability": "nonpayable",
            "type": "constructor"
        },
        {
            "anonymous": false,
            "inputs": [
                {
                    "indexed": true,
                    "internalType": "address",
                    "name": "owner",
                    "type": "address"
                },
                {
                    "indexed": true,
                    "internalType": "address",
                    "name": "approved",
                    "type": "address"
                },
                {
                    "indexed": true,
                    "internalType": "uint256",
                    "name": "tokenId",
                    "type": "uint256"
                }
            ],
            "name": "Approval",
            "type": "event"
        },
        {
            "anonymous": false,
            "inputs": [
                {
                    "indexed": true,
                    "internalType": "address",
                    "name": "owner",
                    "type": "address"
                },
                {
                    "indexed": true,
                    "internalType": "address",
                    "name": "operator",
                    "type": "address"
                },
                {
                    "indexed": false,
                    "internalType": "bool",
                    "name": "approved",
                    "type": "bool"
                }
            ],
            "name": "ApprovalForAll",
            "type": "event"
        },
        {
            "anonymous": false,
            "inputs": [
                {
                    "indexed": false,
                    "internalType": "uint256",
                    "name": "_fromTokenId",
                    "type": "uint256"
                },
                {
                    "indexed": false,
                    "internalType": "uint256",
                    "name": "_toTokenId",
                    "type": "uint256"
                }
            ],
            "name": "BatchMetadataUpdate",
            "type": "event"
        },
        {
            "anonymous": false,
            "inputs": [
                {
                    "indexed": false,
                    "internalType": "uint256",
                    "name": "_tokenId",
                    "type": "uint256"
                }
            ],
            "name": "MetadataUpdate",
            "type": "event"
        },
        {
            "anonymous": false,
            "inputs": [
                {
                    "indexed": true,
                    "internalType": "uint256",
                    "name": "tokenId",
                    "type": "uint256"
                },
                {
                    "indexed": false,
                    "internalType": "address",
                    "name": "owner",
                    "type": "address"
                },
                {
                    "indexed": false,
                    "internalType": "address",
                    "name": "seller",
                    "type": "address"
                },
                {
                    "indexed": false,
                    "internalType": "uint256",
                    "name": "priceInWei",
                    "type": "uint256"
                },
                {
                    "indexed": false,
                    "internalType": "bool",
                    "name": "currentlyListed",
                    "type": "bool"
                }
            ],
            "name": "TokenListedSuccess",
            "type": "event"
        },
        {
            "anonymous": false,
            "inputs": [
                {
                    "indexed": true,
                    "internalType": "address",
                    "name": "from",
                    "type": "address"
                },
                {
                    "indexed": true,
                    "internalType": "address",
                    "name": "to",
                    "type": "address"
                },
                {
                    "indexed": true,
                    "internalType": "uint256",
                    "name": "tokenId",
                    "type": "uint256"
                }
            ],
            "name": "Transfer",
            "type": "event"
        },
        {
            "inputs": [],
            "name": "DECIMALS",
            "outputs": [
                {
                    "internalType": "uint256",
                    "name": "",
                    "type": "uint256"
                }
            ],
            "stateMutability": "view",
            "type": "function"
        },
        {
            "inputs": [
                {
                    "internalType": "address",
                    "name": "to",
                    "type": "address"
                },
                {
                    "internalType": "uint256",
                    "name": "tokenId",
                    "type": "uint256"
                }
            ],
            "name": "approve",
            "outputs": [],
            "stateMutability": "nonpayable",
            "type": "function"
        },
        {
            "inputs": [
                {
                    "internalType": "address",
                    "name": "owner",
                    "type": "address"
                }
            ],
            "name": "balanceOf",
            "outputs": [
                {
                    "internalType": "uint256",
                    "name": "",
                    "type": "uint256"
                }
            ],
            "stateMutability": "view",
            "type": "function"
        },
        {
            "inputs": [
                {
                    "internalType": "uint256",
                    "name": "price",
                    "type": "uint256"
                }
            ],
            "name": "calculatePlatformFee",
            "outputs": [
                {
                    "internalType": "uint256",
                    "name": "",
                    "type": "uint256"
                }
            ],
            "stateMutability": "pure",
            "type": "function"
        },
        {
            "inputs": [
                {
                    "internalType": "string",
                    "name": "tokenURI",
                    "type": "string"
                },
                {
                    "internalType": "uint256",
                    "name": "price",
                    "type": "uint256"
                }
            ],
            "name": "createToken",
            "outputs": [
                {
                    "internalType": "uint256",
                    "name": "",
                    "type": "uint256"
                }
            ],
            "stateMutability": "payable",
            "type": "function"
        },
        {
            "inputs": [
                {
                    "internalType": "uint256",
                    "name": "tokenId",
                    "type": "uint256"
                }
            ],
            "name": "executeSale",
            "outputs": [],
            "stateMutability": "payable",
            "type": "function"
        },
        {
            "inputs": [],
            "name": "getAllNFTs",
            "outputs": [
                {
                    "components": [
                        {
                            "internalType": "uint256",
                            "name": "tokenId",
                            "type": "uint256"
                        },
                        {
                            "internalType": "address payable",
                            "name": "owner",
                            "type": "address"
                        },
                        {
                            "internalType": "address payable",
                            "name": "seller",
                            "type": "address"
                        },
                        {
                            "internalType": "uint256",
                            "name": "priceInWei",
                            "type": "uint256"
                        },
                        {
                            "internalType": "bool",
                            "name": "currentlyListed",
                            "type": "bool"
                        }
                    ],
                    "internalType": "struct NFTMarketplace.ListedToken[]",
                    "name": "",
                    "type": "tuple[]"
                }
            ],
            "stateMutability": "view",
            "type": "function"
        },
        {
            "inputs": [
                {
                    "internalType": "uint256",
                    "name": "tokenId",
                    "type": "uint256"
                }
            ],
            "name": "getApproved",
            "outputs": [
                {
                    "internalType": "address",
                    "name": "",
                    "type": "address"
                }
            ],
            "stateMutability": "view",
            "type": "function"
        },
        {
            "inputs": [],
            "name": "getCurrentToken",
            "outputs": [
                {
                    "internalType": "uint256",
                    "name": "",
                    "type": "uint256"
                }
            ],
            "stateMutability": "view",
            "type": "function"
        },
        {
            "inputs": [],
            "name": "getLatestEthPrice",
            "outputs": [
                {
                    "internalType": "uint256",
                    "name": "",
                    "type": "uint256"
                }
            ],
            "stateMutability": "view",
            "type": "function"
        },
        {
            "inputs": [],
            "name": "getLatestIdToListedToken",
            "outputs": [
                {
                    "components": [
                        {
                            "internalType": "uint256",
                            "name": "tokenId",
                            "type": "uint256"
                        },
                        {
                            "internalType": "address payable",
                            "name": "owner",
                            "type": "address"
                        },
                        {
                            "internalType": "address payable",
                            "name": "seller",
                            "type": "address"
                        },
                        {
                            "internalType": "uint256",
                            "name": "priceInWei",
                            "type": "uint256"
                        },
                        {
                            "internalType": "bool",
                            "name": "currentlyListed",
                            "type": "bool"
                        }
                    ],
                    "internalType": "struct NFTMarketplace.ListedToken",
                    "name": "",
                    "type": "tuple"
                }
            ],
            "stateMutability": "view",
            "type": "function"
        },
        {
            "inputs": [
                {
                    "internalType": "uint256",
                    "name": "tokenId",
                    "type": "uint256"
                }
            ],
            "name": "getListedTokenForId",
            "outputs": [
                {
                    "components": [
                        {
                            "internalType": "uint256",
                            "name": "tokenId",
                            "type": "uint256"
                        },
                        {
                            "internalType": "address payable",
                            "name": "owner",
                            "type": "address"
                        },
                        {
                            "internalType": "address payable",
                            "name": "seller",
                            "type": "address"
                        },
                        {
                            "internalType": "uint256",
                            "name": "priceInWei",
                            "type": "uint256"
                        },
                        {
                            "internalType": "bool",
                            "name": "currentlyListed",
                            "type": "bool"
                        }
                    ],
                    "internalType": "struct NFTMarketplace.ListedToken",
                    "name": "",
                    "type": "tuple"
                }
            ],
            "stateMutability": "view",
            "type": "function"
        },
        {
            "inputs": [],
            "name": "getMyNFTs",
            "outputs": [
                {
                    "components": [
                        {
                            "internalType": "uint256",
                            "name": "tokenId",
                            "type": "uint256"
                        },
                        {
                            "internalType": "address payable",
                            "name": "owner",
                            "type": "address"
                        },
                        {
                            "internalType": "address payable",
                            "name": "seller",
                            "type": "address"
                        },
                        {
                            "internalType": "uint256",
                            "name": "priceInWei",
                            "type": "uint256"
                        },
                        {
                            "internalType": "bool",
                            "name": "currentlyListed",
                            "type": "bool"
                        }
                    ],
                    "internalType": "struct NFTMarketplace.ListedToken[]",
                    "name": "",
                    "type": "tuple[]"
                }
            ],
            "stateMutability": "view",
            "type": "function"
        },
        {
            "inputs": [
                {
                    "internalType": "address",
                    "name": "owner",
                    "type": "address"
                },
                {
                    "internalType": "address",
                    "name": "operator",
                    "type": "address"
                }
            ],
            "name": "isApprovedForAll",
            "outputs": [
                {
                    "internalType": "bool",
                    "name": "",
                    "type": "bool"
                }
            ],
            "stateMutability": "view",
            "type": "function"
        },
        {
            "inputs": [],
            "name": "name",
            "outputs": [
                {
                    "internalType": "string",
                    "name": "",
                    "type": "string"
                }
            ],
            "stateMutability": "view",
            "type": "function"
        },
        {
            "inputs": [],
            "name": "oracleAddress",
            "outputs": [
                {
                    "internalType": "address",
                    "name": "",
                    "type": "address"
                }
            ],
            "stateMutability": "view",
            "type": "function"
        },
        {
            "inputs": [
                {
                    "internalType": "uint256",
                    "name": "tokenId",
                    "type": "uint256"
                }
            ],
            "name": "ownerOf",
            "outputs": [
                {
                    "internalType": "address",
                    "name": "",
                    "type": "address"
                }
            ],
            "stateMutability": "view",
            "type": "function"
        },
        {
            "inputs": [
                {
                    "internalType": "address",
                    "name": "from",
                    "type": "address"
                },
                {
                    "internalType": "address",
                    "name": "to",
                    "type": "address"
                },
                {
                    "internalType": "uint256",
                    "name": "tokenId",
                    "type": "uint256"
                }
            ],
            "name": "safeTransferFrom",
            "outputs": [],
            "stateMutability": "nonpayable",
            "type": "function"
        },
        {
            "inputs": [
                {
                    "internalType": "address",
                    "name": "from",
                    "type": "address"
                },
                {
                    "internalType": "address",
                    "name": "to",
                    "type": "address"
                },
                {
                    "internalType": "uint256",
                    "name": "tokenId",
                    "type": "uint256"
                },
                {
                    "internalType": "bytes",
                    "name": "data",
                    "type": "bytes"
                }
            ],
            "name": "safeTransferFrom",
            "outputs": [],
            "stateMutability": "nonpayable",
            "type": "function"
        },
        {
            "inputs": [
                {
                    "internalType": "address",
                    "name": "operator",
                    "type": "address"
                },
                {
                    "internalType": "bool",
                    "name": "approved",
                    "type": "bool"
                }
            ],
            "name": "setApprovalForAll",
            "outputs": [],
            "stateMutability": "nonpayable",
            "type": "function"
        },
        {
            "inputs": [
                {
                    "internalType": "bytes4",
                    "name": "interfaceId",
                    "type": "bytes4"
                }
            ],
            "name": "supportsInterface",
            "outputs": [
                {
                    "internalType": "bool",
                    "name": "",
                    "type": "bool"
                }
            ],
            "stateMutability": "view",
            "type": "function"
        },
        {
            "inputs": [],
            "name": "symbol",
            "outputs": [
                {
                    "internalType": "string",
                    "name": "",
                    "type": "string"
                }
            ],
            "stateMutability": "view",
            "type": "function"
        },
        {
            "inputs": [
                {
                    "internalType": "uint256",
                    "name": "tokenId",
                    "type": "uint256"
                }
            ],
            "name": "tokenURI",
            "outputs": [
                {
                    "internalType": "string",
                    "name": "",
                    "type": "string"
                }
            ],
            "stateMutability": "view",
            "type": "function"
        },
        {
            "inputs": [
                {
                    "internalType": "address",
                    "name": "from",
                    "type": "address"
                },
                {
                    "internalType": "address",
                    "name": "to",
                    "type": "address"
                },
                {
                    "internalType": "uint256",
                    "name": "tokenId",
                    "type": "uint256"
                }
            ],
            "name": "transferFrom",
            "outputs": [],
            "stateMutability": "nonpayable",
            "type": "function"
        }
    ],
    "bytecode": "0x60806040523480156200001157600080fd5b50604051620025f0380380620025f0833981016040819052620000349162000174565b604080518082018252600e81526d4e46544d61726b6574706c61636560901b6020808301918252835180850190945260048452634e46544d60e01b9084015281519192916200008691600091620000ce565b5080516200009c906001906020840190620000ce565b5050600a80546001600160a01b039093166001600160a01b0319938416179055506009805490911633179055620001e1565b828054620000dc90620001a4565b90600052602060002090601f0160209004810192826200010057600085556200014b565b82601f106200011b57805160ff19168380011785556200014b565b828001600101855582156200014b579182015b828111156200014b5782518255916020019190600101906200012e565b50620001599291506200015d565b5090565b5b808211156200015957600081556001016200015e565b60006020828403121562000186578081fd5b81516001600160a01b03811681146200019d578182fd5b9392505050565b600181811c90821680620001b957607f821691505b60208210811415620001db57634e487b7160e01b600052602260045260246000fd5b50919050565b6123ff80620001f16000396000f3fe60806040526004361061014b5760003560e01c806372b3b620116100b6578063b88d4fde1161006f578063b88d4fde146103a3578063c87b56dd146103c3578063d1a88ae5146103e3578063e0391b09146103f8578063e985e9c51461040d578063ef2d17461461045657600080fd5b806372b3b620146102fb5780638e2645901461030e57806395d89b411461033b5780639b1225c414610350578063a22cb46514610363578063a89ae4ba1461038357600080fd5b80632e0f2625116101085780632e0f26251461024f57806330c0b9ec1461026457806342842e0e14610279578063629cb2e4146102995780636352211e146102bb57806370a08231146102db57600080fd5b806301ffc9a71461015057806306fdde0314610185578063081812fc146101a7578063095ea7b3146101df5780630cbab4f71461020157806323b872dd1461022f575b600080fd5b34801561015c57600080fd5b5061017061016b366004611ea3565b61046b565b60405190151581526020015b60405180910390f35b34801561019157600080fd5b5061019a610496565b60405161017c91906120be565b3480156101b357600080fd5b506101c76101c2366004611f31565b610528565b6040516001600160a01b03909116815260200161017c565b3480156101eb57600080fd5b506101ff6101fa366004611e7a565b61054f565b005b34801561020d57600080fd5b5061022161021c366004611f31565b61066a565b60405190815260200161017c565b34801561023b57600080fd5b506101ff61024a366004611d8c565b610683565b34801561025b57600080fd5b50610221601281565b34801561027057600080fd5b506102216106b4565b34801561028557600080fd5b506101ff610294366004611d8c565b610795565b3480156102a557600080fd5b506102ae6107b0565b60405161017c9190612070565b3480156102c757600080fd5b506101c76102d6366004611f31565b6109f3565b3480156102e757600080fd5b506102216102f6366004611d40565b610a53565b610221610309366004611edb565b610ad9565b34801561031a57600080fd5b5061032e610329366004611f31565b610b4e565b60405161017c91906121b5565b34801561034757600080fd5b5061019a610bb8565b6101ff61035e366004611f31565b610bc7565b34801561036f57600080fd5b506101ff61037e366004611e40565b610d5a565b34801561038f57600080fd5b50600a546101c7906001600160a01b031681565b3480156103af57600080fd5b506101ff6103be366004611dc7565b610d69565b3480156103cf57600080fd5b5061019a6103de366004611f31565b610d9b565b3480156103ef57600080fd5b5061032e610eac565b34801561040457600080fd5b506102ae610f23565b34801561041957600080fd5b50610170610428366004611d5a565b6001600160a01b03918216600090815260056020908152604080832093909416825291909152205460ff1690565b34801561046257600080fd5b50610221611069565b60006001600160e01b03198216632483248360e11b1480610490575061049082611079565b92915050565b6060600080546104a590612331565b80601f01602080910402602001604051908101604052809291908181526020018280546104d190612331565b801561051e5780601f106104f35761010080835404028352916020019161051e565b820191906000526020600020905b81548152906001019060200180831161050157829003601f168201915b5050505050905090565b6000610533826110c9565b506000908152600460205260409020546001600160a01b031690565b600061055a826109f3565b9050806001600160a01b0316836001600160a01b031614156105cd5760405162461bcd60e51b815260206004820152602160248201527f4552433732313a20617070726f76616c20746f2063757272656e74206f776e656044820152603960f91b60648201526084015b60405180910390fd5b336001600160a01b03821614806105e957506105e98133610428565b61065b5760405162461bcd60e51b815260206004820152603d60248201527f4552433732313a20617070726f76652063616c6c6572206973206e6f7420746f60448201527f6b656e206f776e6572206f7220617070726f76656420666f7220616c6c00000060648201526084016105c4565b610665838361112b565b505050565b6000606461067983600a6122e6565b61049091906121db565b61068d3382611199565b6106a95760405162461bcd60e51b81526004016105c4906120d1565b610665838383611217565b600a5460408051633fabe5a360e21b815290516000926001600160a01b0316918391839163feaf968c9160048083019260a0929190829003018186803b1580156106fd57600080fd5b505afa158015610711573d6000803e3d6000fd5b505050506040513d601f19601f820116820180604052508101906107359190611f49565b505050915050600081136104905760405162461bcd60e51b815260206004820152602160248201527f496e76616c696420436861696e6c696e6b2070726963652066656564206461746044820152606160f81b60648201526084016105c4565b61066583838360405180602001604052806000815250610d69565b606060006107bd60075490565b905060008080805b848110156108555733600b60006107dd8460016121c3565b81526020810191909152604001600020600101546001600160a01b03161480610830575033600b60006108118460016121c3565b81526020810191909152604001600020600201546001600160a01b0316145b15610843576108406001856121c3565b93505b8061084d8161236c565b9150506107c5565b5060008367ffffffffffffffff81111561087f57634e487b7160e01b600052604160045260246000fd5b6040519080825280602002602001820160405280156108b857816020015b6108a5611bcd565b81526020019060019003908161089d5790505b50905060005b858110156109e95733600b60006108d68460016121c3565b81526020810191909152604001600020600101546001600160a01b03161480610929575033600b600061090a8460016121c3565b81526020810191909152604001600020600201546001600160a01b0316145b156109d7576109398160016121c3565b6000818152600b6020908152604091829020825160a0810184528154815260018201546001600160a01b039081169382019390935260028201549092169282019290925260038201546060820152600482015460ff1615156080820152845192955090918490879081106109bd57634e487b7160e01b600052603260045260246000fd5b60209081029190910101526109d36001866121c3565b9450505b806109e18161236c565b9150506108be565b5095945050505050565b6000818152600260205260408120546001600160a01b0316806104905760405162461bcd60e51b8152602060048201526018602482015277115490cdcc8c4e881a5b9d985b1a59081d1bdad95b88125160421b60448201526064016105c4565b60006001600160a01b038216610abd5760405162461bcd60e51b815260206004820152602960248201527f4552433732313a2061646472657373207a65726f206973206e6f7420612076616044820152683634b21037bbb732b960b91b60648201526084016105c4565b506001600160a01b031660009081526003602052604090205490565b6000610ae9600780546001019055565b6000610af460075490565b9050610b00338261137b565b610b0a8185611395565b6000610b146106b4565b90506000610b246012600a61223e565b610b2e83876121db565b610b3891906122e6565b9050610b448382611467565b5090949350505050565b610b56611bcd565b506000908152600b6020908152604091829020825160a0810184528154815260018201546001600160a01b03908116938201939093526002820154909216928201929092526003820154606082015260049091015460ff161515608082015290565b6060600180546104a590612331565b6000818152600b6020526040902060038101546002909101546001600160a01b0316610bf28261066a565b610bfc90836121c3565b3414610c8b5760405162461bcd60e51b815260206004820152605260248201527f506c65617365207375626d6974207468652061736b696e67207072696365207060448201527f6c757320706c6174666f726d2066656520696e206f7264657220746f20636f6d606482015271706c6574652074686520707572636861736560701b608482015260a4016105c4565b6000838152600b6020526040902060048101805460ff1916600117905560020180546001600160a01b03191633179055610cc9600880546001019055565b610cd4303385611217565b610cde308461054f565b6009546001600160a01b03166108fc610cf68461066a565b6040518115909202916000818181858888f19350505050158015610d1e573d6000803e3d6000fd5b506040516001600160a01b038216903480156108fc02916000818181858888f19350505050158015610d54573d6000803e3d6000fd5b50505050565b610d65338383611609565b5050565b610d733383611199565b610d8f5760405162461bcd60e51b81526004016105c4906120d1565b610d54848484846116d8565b6060610da6826110c9565b60008281526006602052604081208054610dbf90612331565b80601f0160208091040260200160405190810160405280929190818152602001828054610deb90612331565b8015610e385780601f10610e0d57610100808354040283529160200191610e38565b820191906000526020600020905b815481529060010190602001808311610e1b57829003601f168201915b505050505090506000610e5660408051602081019091526000815290565b9050805160001415610e69575092915050565b815115610e9b578082604051602001610e83929190612004565b60405160208183030381529060405292505050919050565b610ea48461170b565b949350505050565b610eb4611bcd565b6000610ebf60075490565b6000908152600b6020908152604091829020825160a0810184528154815260018201546001600160a01b03908116938201939093526002820154909216928201929092526003820154606082015260049091015460ff161515608082015292915050565b60606000610f3060075490565b905060008167ffffffffffffffff811115610f5b57634e487b7160e01b600052604160045260246000fd5b604051908082528060200260200182016040528015610f9457816020015b610f81611bcd565b815260200190600190039081610f795790505b509050600080805b8481101561105f57610faf8160016121c3565b6000818152600b6020908152604091829020825160a0810184528154815260018201546001600160a01b039081169382019390935260028201549092169282019290925260038201546060820152600482015460ff16151560808201528651929450909186908690811061103357634e487b7160e01b600052603260045260246000fd5b60209081029190910101526110496001856121c3565b93505080806110579061236c565b915050610f9c565b5091949350505050565b600061107460075490565b905090565b60006001600160e01b031982166380ac58cd60e01b14806110aa57506001600160e01b03198216635b5e139f60e01b145b8061049057506301ffc9a760e01b6001600160e01b0319831614610490565b6000818152600260205260409020546001600160a01b03166111285760405162461bcd60e51b8152602060048201526018602482015277115490cdcc8c4e881a5b9d985b1a59081d1bdad95b88125160421b60448201526064016105c4565b50565b600081815260046020526040902080546001600160a01b0319166001600160a01b0384169081179091558190611160826109f3565b6001600160a01b03167f8c5be1e5ebec7d5bd14f71427d1e84f3dd0314c0f7b2291e5b200ac8c7c3b92560405160405180910390a45050565b6000806111a5836109f3565b9050806001600160a01b0316846001600160a01b031614806111ec57506001600160a01b0380821660009081526005602090815260408083209388168352929052205460ff165b80610ea45750836001600160a01b031661120584610528565b6001600160a01b031614949350505050565b826001600160a01b031661122a826109f3565b6001600160a01b0316146112505760405162461bcd60e51b81526004016105c490612170565b6001600160a01b0382166112b25760405162461bcd60e51b8152602060048201526024808201527f4552433732313a207472616e7366657220746f20746865207a65726f206164646044820152637265737360e01b60648201526084016105c4565b826001600160a01b03166112c5826109f3565b6001600160a01b0316146112eb5760405162461bcd60e51b81526004016105c490612170565b600081815260046020908152604080832080546001600160a01b03199081169091556001600160a01b0387811680865260038552838620805460001901905590871680865283862080546001019055868652600290945282852080549092168417909155905184937fddf252ad1be2c89b69c2b068fc378daa952ba7f163c4a11628f55a4df523b3ef91a4505050565b610d6582826040518060200160405280600081525061177f565b6000828152600260205260409020546001600160a01b03166114105760405162461bcd60e51b815260206004820152602e60248201527f45524337323155524953746f726167653a2055524920736574206f66206e6f6e60448201526d32bc34b9ba32b73a103a37b5b2b760911b60648201526084016105c4565b6000828152600660209081526040909120825161142f92840190611bfb565b506040518281527ff8e1a15aba9398e019f0b49df1a4fde98ee17ae345cb5f6b5e2c27f5033e8ce79060200160405180910390a15050565b60006114728261066a565b90508034146114c35760405162461bcd60e51b815260206004820152601e60248201527f496e73756666696369656e742066756e647320746f206c697374204e4654000060448201526064016105c4565b6000821161151e5760405162461bcd60e51b815260206004820152602260248201527f4d616b652073757265207468652070726963652069736e2774206e6567617469604482015261766560f01b60648201526084016105c4565b6040805160a081018252848152306020808301828152338486018181526060860189815260016080880181815260008d8152600b9097529890952096518755925193860180546001600160a01b039586166001600160a01b03199182161790915590516002870180549190951691161790925551600384015592516004909201805492151560ff19909316929092179091556115bb919085611217565b604080513081523360208201529081018390526001606082015283907f9339409317fd01fabff48b703019016f49159bacc801ae872d2ca637d226e4c09060800160405180910390a2505050565b816001600160a01b0316836001600160a01b0316141561166b5760405162461bcd60e51b815260206004820152601960248201527f4552433732313a20617070726f766520746f2063616c6c65720000000000000060448201526064016105c4565b6001600160a01b03838116600081815260056020908152604080832094871680845294825291829020805460ff191686151590811790915591519182527f17307eab39ab6107e8899845ad3d59bd9653f200f220920489ca2b5937696c31910160405180910390a3505050565b6116e3848484611217565b6116ef848484846117b2565b610d545760405162461bcd60e51b81526004016105c49061211e565b6060611716826110c9565b600061172d60408051602081019091526000815290565b9050600081511161174d5760405180602001604052806000815250611778565b80611757846118bf565b604051602001611768929190612004565b6040516020818303038152906040525b9392505050565b611789838361196a565b61179660008484846117b2565b6106655760405162461bcd60e51b81526004016105c49061211e565b60006001600160a01b0384163b156118b457604051630a85bd0160e11b81526001600160a01b0385169063150b7a02906117f6903390899088908890600401612033565b602060405180830381600087803b15801561181057600080fd5b505af1925050508015611840575060408051601f3d908101601f1916820190925261183d91810190611ebf565b60015b61189a573d80801561186e576040519150601f19603f3d011682016040523d82523d6000602084013e611873565b606091505b5080516118925760405162461bcd60e51b81526004016105c49061211e565b805181602001fd5b6001600160e01b031916630a85bd0160e11b149050610ea4565b506001949350505050565b606060006118cc83611af5565b600101905060008167ffffffffffffffff8111156118fa57634e487b7160e01b600052604160045260246000fd5b6040519080825280601f01601f191660200182016040528015611924576020820181803683370190505b5090508181016020015b600019016f181899199a1a9b1b9c1cb0b131b232b360811b600a86061a8153600a850494508461195d57611962565b61192e565b509392505050565b6001600160a01b0382166119c05760405162461bcd60e51b815260206004820181905260248201527f4552433732313a206d696e7420746f20746865207a65726f206164647265737360448201526064016105c4565b6000818152600260205260409020546001600160a01b031615611a255760405162461bcd60e51b815260206004820152601c60248201527f4552433732313a20746f6b656e20616c7265616479206d696e7465640000000060448201526064016105c4565b6000818152600260205260409020546001600160a01b031615611a8a5760405162461bcd60e51b815260206004820152601c60248201527f4552433732313a20746f6b656e20616c7265616479206d696e7465640000000060448201526064016105c4565b6001600160a01b038216600081815260036020908152604080832080546001019055848352600290915280822080546001600160a01b0319168417905551839291907fddf252ad1be2c89b69c2b068fc378daa952ba7f163c4a11628f55a4df523b3ef908290a45050565b60008072184f03e93ff9f4daa797ed6e38ed64bf6a1f0160401b8310611b345772184f03e93ff9f4daa797ed6e38ed64bf6a1f0160401b830492506040015b6d04ee2d6d415b85acef81000000008310611b60576d04ee2d6d415b85acef8100000000830492506020015b662386f26fc100008310611b7e57662386f26fc10000830492506010015b6305f5e1008310611b96576305f5e100830492506008015b6127108310611baa57612710830492506004015b60648310611bbc576064830492506002015b600a83106104905760010192915050565b6040805160a08101825260008082526020820181905291810182905260608101829052608081019190915290565b828054611c0790612331565b90600052602060002090601f016020900481019282611c295760008555611c6f565b82601f10611c4257805160ff1916838001178555611c6f565b82800160010185558215611c6f579182015b82811115611c6f578251825591602001919060010190611c54565b50611c7b929150611c7f565b5090565b5b80821115611c7b5760008155600101611c80565b600067ffffffffffffffff80841115611caf57611caf61239d565b604051601f8501601f19908116603f01168101908282118183101715611cd757611cd761239d565b81604052809350858152868686011115611cf057600080fd5b858560208301376000602087830101525050509392505050565b80356001600160a01b0381168114611d2157600080fd5b919050565b805169ffffffffffffffffffff81168114611d2157600080fd5b600060208284031215611d51578081fd5b61177882611d0a565b60008060408385031215611d6c578081fd5b611d7583611d0a565b9150611d8360208401611d0a565b90509250929050565b600080600060608486031215611da0578081fd5b611da984611d0a565b9250611db760208501611d0a565b9150604084013590509250925092565b60008060008060808587031215611ddc578081fd5b611de585611d0a565b9350611df360208601611d0a565b925060408501359150606085013567ffffffffffffffff811115611e15578182fd5b8501601f81018713611e25578182fd5b611e3487823560208401611c94565b91505092959194509250565b60008060408385031215611e52578182fd5b611e5b83611d0a565b915060208301358015158114611e6f578182fd5b809150509250929050565b60008060408385031215611e8c578182fd5b611e9583611d0a565b946020939093013593505050565b600060208284031215611eb4578081fd5b8135611778816123b3565b600060208284031215611ed0578081fd5b8151611778816123b3565b60008060408385031215611eed578182fd5b823567ffffffffffffffff811115611f03578283fd5b8301601f81018513611f13578283fd5b611f2285823560208401611c94565b95602094909401359450505050565b600060208284031215611f42578081fd5b5035919050565b600080600080600060a08688031215611f60578081fd5b611f6986611d26565b9450602086015193506040860151925060608601519150611f8c60808701611d26565b90509295509295909350565b60008151808452611fb0816020860160208601612305565b601f01601f19169290920160200192915050565b805182526020808201516001600160a01b039081169184019190915260408083015190911690830152606080820151908301526080908101511515910152565b60008351612016818460208801612305565b83519083019061202a818360208801612305565b01949350505050565b6001600160a01b038581168252841660208201526040810183905260806060820181905260009061206690830184611f98565b9695505050505050565b6020808252825182820181905260009190848201906040850190845b818110156120b25761209f838551611fc4565b9284019260a0929092019160010161208c565b50909695505050505050565b6020815260006117786020830184611f98565b6020808252602d908201527f4552433732313a2063616c6c6572206973206e6f7420746f6b656e206f776e6560408201526c1c881bdc88185c1c1c9bdd9959609a1b606082015260800190565b60208082526032908201527f4552433732313a207472616e7366657220746f206e6f6e20455243373231526560408201527131b2b4bb32b91034b6b83632b6b2b73a32b960711b606082015260800190565b60208082526025908201527f4552433732313a207472616e736665722066726f6d20696e636f72726563742060408201526437bbb732b960d91b606082015260800190565b60a081016104908284611fc4565b600082198211156121d6576121d6612387565b500190565b6000826121f657634e487b7160e01b81526012600452602481fd5b500490565b600181815b8085111561223657816000190482111561221c5761221c612387565b8085161561222957918102915b93841c9390800290612200565b509250929050565b6000611778838360008261225457506001610490565b8161226157506000610490565b816001811461227757600281146122815761229d565b6001915050610490565b60ff84111561229257612292612387565b50506001821b610490565b5060208310610133831016604e8410600b84101617156122c0575081810a610490565b6122ca83836121fb565b80600019048211156122de576122de612387565b029392505050565b600081600019048311821515161561230057612300612387565b500290565b60005b83811015612320578181015183820152602001612308565b83811115610d545750506000910152565b600181811c9082168061234557607f821691505b6020821081141561236657634e487b7160e01b600052602260045260246000fd5b50919050565b600060001982141561238057612380612387565b5060010190565b634e487b7160e01b600052601160045260246000fd5b634e487b7160e01b600052604160045260246000fd5b6001600160e01b03198116811461112857600080fdfea26469706673582212201462275e805bdf5e23244f3f9c956052c01780c067435107b6e69e6c4b77c88c64736f6c63430008040033",
    "linkReferences": {},
    "deployedLinkReferences": {}
}